:020000000130CD
:030003000201896E
:03000B000200965A
:030013000201C720
:03001B000200A739
:1000300075811075900F75320C75330A7534217502
:100040003511758961758CE7758A09758DDC758B3D
:10005000DC7E047F057537081203DA7832AA30ABEC
:10006000308B3612046C12046C12046CAB36120422
:100070001D8B387539F912042B8A387539FB120437
:100080002B75B80A75A88F758805D28CD28E75A687
:100090001E75A6E180FE0000758CE7758A0875A6BE
:1000A0001E75A6E1B2B532C0E0B27E207E1EEC60C5
:1000B00018ECC3940210D7117009853B3E1203B1AE
:1000C000020186853C3E1203B1020186EC601EEC03
:1000D000C3940210D717700C853B387539FD120494
:1000E0002B0200ED853C387539FD12042B8B36123E
:1000F000046CAB368A3612046CAA36BAF93F08B8DB
:100100003618783212041DAA30AB308B3612046CCC
:1001100012046C12046CAB36802CB8341612041D19
:10012000AA31AB318B3612046C12046C12046CAB26
:10013000368013B8350712041DEBCA8009BBF906D7
:100140000812041DEACBE8C2D7943330D7138B389A
:100150007539F912042B8A387539FB12042B020108
:10016000718A387539F912042B8B387539FB1204F2
:100170002BDE137E04DF0F7F050537E537B4180348
:100180007537001203DAD0E032C0E0E590B83203F0
:100190000201AFB833030201AFB834030201A2B8C1
:1001A000351720E002D29420E10FD2950201B92048
:1001B000E202D29620E302D297741E120486D5E0A2
:1001C000FA75900FD0E032C0D0C0E0E5A054F864DA
:1001D000F86029120486E5A054F864F8601E20E354
:1001E0000C20E40C20E50C20E60C20E70C02020EAB
:1001F00002023C0202B40202B902030AE5A054F86A
:1002000064F8600512049780F3D0E0D0D032BC00CF
:10021000147C0185373A853A381203CA7539FD12C4
:10022000042B0201FC7C00753A00753B00753C0014
:100230007538FF7539FD12042B0201FCECF9B90089
:10024000030201FCD903020253D903020260D9ACB4
:1002500002026D0C853B387539FD12042B0201FC3E
:100260000C853C387539FD12042B0201FC7C01859C
:100270003A381203CA7539FD12042BE53A2324508B
:10028000C9E53BC2D7940330D703753B00A73B09B0
:10029000E53CC2D7940330D703753C00A73C753BBF
:1002A00000753C00A93AE537C2D799B400031203A0
:1002B000DA0201FCB27F0201FCECF9B90003020191
:1002C000FCD919053AE53AB41803753A00853A386D
:1002D0001203CA7539FD12042B0201FCD915853BA6
:1002E0003D12035B853D3B853B387539FD12042B80
:1002F0000201FCD912853C3D12035B853D3C853CE7
:10030000387539FD12042B0201FCECF9B900030227
:1003100001FCD919E53AB40003753A18153A853A43
:10032000381203CA7539FD12042B0201FCD9158558
:100330003B3D120386853D3B853B387539FD1204F4
:100340002B0201FCD912853C3D120386853D3C857C
:100350003C387539FD12042B0201FCC0E0E53D205C
:100360007F10540FB40906533DF0020383053D028C
:10037000038354F0B49006533D0F020383E53D24FC
:1003800010F53DD0E022C0E0E53D207F10540FB4D1
:100390000006433D090203AE153D0203AE54F0B41E
:1003A0000006433D900203AEE53D9410F53DD0E0DC
:1003B00022C0E0E53E207F05440F0203BF44F0F574
:1003C000387539FD12042BD0E022C0E0E53875F015
:1003D0000A84C445F0F538D0E022C083C082C0E072
:1003E000C0D0D2D39004B8E5372393F530E5372356
:1003F0000493F531E537232450F804F9E6476012F9
:10040000B60004873081098630B700048631811236
:100410008731C2D3D0D0D0E0D082D08322C083C075
:10042000E07583FEE6F0D0E0D08322C0E0E53853EB
:10043000380F12044F853983120464C4F5385338D9
:100440000F12044F1539853983120464D0E022C09D
:1004500083C082C0E09004A8E53893C538D0E0D0CE
:1004600082D08322C0E0E538F0D0E022C0E0C0D0E6
:100470001536E536540FB40F08C2D7E5369406F5A5
:1004800036D0D0D0E022007540097541FF0000D57C
:1004900041FBD540F500227540047541D2000000B3
:1004A000D541FAD540F400223F065B4F666D7D07CB
:1004B0007F6F777C395E7900030404050506060723
:1004C000070808090910101111121213131414153A
:1004D0001516161717181819192020212122222362
:0804E0002324242525262627EC
:00000001FF
