:020000000130CD
:0300030002018F68
:03000B0002009E52
:030013000201CD1A
:03001B000200AD33
:1000300075811075900F75320C75330A7534217502
:100040003511758961758CE7758A00758DDC758B46
:10005000DC7E047F057537081203E07832AA30ABE6
:10006000308B36120472120472120472AB36120410
:10007000238B387539F91204318A387539FB12042B
:100080003175B80AD2A9D2ABD2A8D2AAD2AFD2883F
:10009000D28AD28CD28E75A61E75A6E180FE758C92
:1000A000E7758A0075A61E75A6E1B2B532C0E0B24A
:1000B0007E207E1EEC6018ECC3940210D7117009EC
:1000C000853B3E1203B702018C853C3E1203B7020A
:1000D000018CEC601EECC3940210D717700C853BAA
:1000E000387539FD1204310200F3853C387539FD4D
:1000F0001204318B36120472AB368A36120472AA9D
:1001000036BAF93F08B836187832120423AA30AB51
:10011000308B36120472120472120472AB36802CC9
:10012000B83416120423AA31AB318B361204721282
:100130000472120472AB368013B83507120423EB35
:10014000CA8009BBF90608120423EACBE8C2D79497
:100150003330D7138B387539F91204318A38753931
:10016000FB1204310201778A387539F91204318B98
:10017000387539FB120431DE137E04DF0F7F05056D
:1001800037E537B418037537001203E0D0E032C00A
:10019000E0E590B832030201B5B833030201B5B807
:1001A00034030201A8B8351720E002D29420E10FF1
:1001B000D2950201BF20E202D29620E302D29774C8
:1001C0001E12048CD5E0FA75900FD0E032C0D0C07A
:1001D000E0E5A054F864F8602912048CE5A054F816
:1001E00064F8601E20E30C20E40C20E50C20E60CF3
:1001F00020E70C0202140202420202BA0202BF020B
:100200000310E5A054F864F8600512049D80F3D053
:10021000E0D0D032BC00147C0185373A853A3812E0
:1002200003D07539FD1204310202027C00753A00D8
:10023000753B00753C007538FF7539FD12043102BD
:100240000202ECF9B90003020202D903020259D9F1
:1002500003020266D9AC0202730C853B387539FD86
:100260001204310202020C853C387539FD1204314A
:100270000202027C01853A381203D07539FD12045E
:1002800031E53A232450C9E53BC2D7940330D70364
:10029000753B00A73B09E53CC2D7940330D70375F3
:1002A0003C00A73C753B00753C00A93AE537C2D736
:1002B00099B400031203E0020202B27F020202ECD0
:1002C000F9B90003020202D919053AE53AB4180354
:1002D000753A00853A381203D07539FD120431029F
:1002E0000202D915853B3D120361853D3B853B38B4
:1002F0007539FD120431020202D912853C3D120308
:1003000061853D3C853C387539FD1204310202029D
:10031000ECF9B90003020202D919E53AB4000375F9
:100320003A18153A853A381203D07539FD1204315E
:10033000020202D915853B3D12038C853D3B853B6E
:10034000387539FD120431020202D912853C3D1282
:10035000038C853D3C853C387539FD120431020221
:1003600002C0E0E53D207F10540FB40906533DF074
:10037000020389053D02038954F0B49006533D0FF2
:10038000020389E53D2410F53DD0E022C0E0E53DC3
:10039000207F10540FB40006433D090203B4153DFD
:1003A0000203B454F0B40006433D900203B4E53DAB
:1003B0009410F53DD0E022C0E0E53E207F05440FDB
:1003C0000203C544F0F5387539FD120431D0E0223E
:1003D000C0E0E53875F00A84C445F0F538D0E02275
:1003E000C083C082C0E0C0D0D2D39004BEE5372322
:1003F00093F530E537230493F531E537232450F89E
:1004000004F9E6476012B600048730810F8630B7E2
:100410000004863181188731C2D3D0D0D0E0D08299
:10042000D08322C083C0E07583FEE6F0D0E0D083A5
:1004300022C0E0E53853380F120455853983120481
:100440006AC4F53853380F120455153985398312AB
:10045000046AD0E022C083C082C0E09004AEE538D8
:1004600093C538D0E0D082D08322C0E0E538F0D008
:10047000E022C0E0C0D01536E536540FB40F08C2F4
:10048000D7E5369406F536D0D0D0E0220075400985
:100490007541FF0000D541FBD540F50022754004B1
:1004A0007541D2000000D541FAD540F400223F0644
:1004B0005B4F666D7D077F6F777C395E7900030443
:1004C000040505060607070808090910101111128E
:1004D00012131314141515161617171818191920B6
:0E04E00020212122222323242425252626271D
:00000001FF
