:020000000130CD
:03000300020147B0
:03000B000200915F
:0300130002018562
:03001B0002009A46
:1000300075811075900F75320C75330A7534217502
:100040003511758961758C1F758A00758DFC758BEE
:10005000FC7E057F06753717757E03757F001203DA
:10006000737832AB30AA311203D28B387539F9125A
:1000700003E08A387539FB1203E075B80AD2A9D2B9
:10008000ABD2A8D2AAD288D28AD2AFD28CD28E805A
:10009000FE758C1F758A00B2B532C0E0B27E207E3C
:1000A0001EEC6018ECC3940210D7117009853B3E1A
:1000B00012034A020144853C3E12034A020144EC09
:1000C000601EECC3940210D717700C853B3875394D
:1000D000FD1203E00200E0853C387539FD1203E0B3
:1000E0008B36120421AB368A36120421AA36BAF9AD
:1000F0002508B8360B78321203D2AB30AA31801FF4
:10010000B834091203D2AB31AA308013B8350712C4
:1001100003D2EBCA8009BBF906081203D2EACB8BE3
:10012000387539F91203E08A387539FB1203E0DEBD
:10013000137E05DF0F7F060537E537B418037537E3
:1001400000120373D0E032C0E0E590B83203020140
:100150006DB8330302016DB83403020160B835177E
:10016000209002D29420910FD29502017720920222
:10017000D296209302D297742812043BD5E0FA75E8
:10018000900FD0E032C0D0C0E0E5A054F864F86031
:100190002912043BE5A054F864F8601E20E30C200B
:1001A000E40C20E50C20E60C20E70C0201CC020157
:1001B000FA02024D0202520202A3E5A054F864F8CA
:1001C000600512044C80F3D0E0D0D032BC00147C27
:1001D0000185373A853A381203637539FD1203E019
:1001E0000201BA7C00753A00753B00753C00753819
:1001F000FF7539FD1203E00201BAECF9B900030200
:1002000001BAD903020211D90302021ED9AC0202BB
:100210002B0C853B387539FD1203E00201BA0C85C1
:100220003C387539FD1203E00201BA7C01853A3889
:100230001203637539FD1203E0E53A232450C9A780
:100240003B09A73C753B00753C000201BAB27F0236
:1002500001BAECF9B900030201BAD919053AE53A35
:10026000B41803753A00853A381203637539FD12E4
:1002700003E00201BAD915853B3D1202F4853D3BEE
:10028000853B387539FD1203E00201BAD912853C6D
:100290003D1202F4853D3C853C387539FD1203E082
:1002A0000201BAECF9B900030201BAD919E53AB46E
:1002B0000003753A18153A853A381203637539FD0B
:1002C0001203E00201BAD915853B3D12031F853D9B
:1002D0003B853B387539FD1203E00201BAD912851E
:1002E0003C3D12031F853D3C853C387539FD1203AA
:1002F000E00201BAC0E0E53D207F10540FB40906CA
:10030000533DF002031C053D02031C54F0B490065B
:10031000533D0F02031CE53D2410F53DD0E022C003
:10032000E0E53D207F10540FB40006433D09020371
:1003300047153D02034754F0B40006433D900203C5
:1003400047E53D9410F53DD0E022C0E0E53E207F3A
:1003500005440F02035844F0F5387539FD1203E0E7
:10036000D0E022C0E0E53875F00A84C445F0F538E5
:10037000D0E022C083C082C0E0C0D0D2D390046D50
:10038000E5372393F530E537230493F531E537233B
:100390002450F804F9E647602EB6000261A08630CA
:1003A000B7000261A78731E657701CB6000E87368A
:1003B000120421120421120421853630B70008E608
:1003C000C2D72403D4F531C2D3D0D0D0E0D082D06C
:1003D0008322C083C0E07583FEE6F0D0E0D08322A4
:1003E000C0E0E53853380F1204048539831204192C
:1003F000C4F53853380F12040415398539831204B3
:1004000019D0E022C083C082C0E090045DE538933B
:10041000C538D0E0D082D08322C0E0E538F0D0E00B
:1004200022C0E0C0D01536E536540FB40F08C2D74D
:10043000E5369406F536D0D0D0E022007540097537
:1004400041FF0000D541FBD540F500227540047501
:1004500041D2000000D541FAD540F400223F065BAE
:100460004F666D7D077F6F777C395E7900020511DD
:100470001403060407050806090110021103050408
:10048000060507060801030204030504060507061E
:0D04900008010302040305040605072426E5
:00000001FF
